{
  "_format": "hh-sol-artifact-1",
  "contractName": "ApprovalContract",
  "sourceName": "contracts/ApprovalContract.sol",
  "abi": [
    {
      "inputs": [],
      "stateMutability": "nonpayable",
      "type": "constructor"
    },
    {
      "inputs": [
        {
          "internalType": "uint256",
          "name": "questId",
          "type": "uint256"
        }
      ],
      "name": "approveQuest",
      "outputs": [],
      "stateMutability": "nonpayable",
      "type": "function"
    },
    {
      "inputs": [
        {
          "internalType": "uint256",
          "name": "questId",
          "type": "uint256"
        }
      ],
      "name": "isApproved",
      "outputs": [
        {
          "internalType": "bool",
          "name": "",
          "type": "bool"
        }
      ],
      "stateMutability": "view",
      "type": "function"
    },
    {
      "inputs": [],
      "name": "parent",
      "outputs": [
        {
          "internalType": "address",
          "name": "",
          "type": "address"
        }
      ],
      "stateMutability": "view",
      "type": "function"
    },
    {
      "inputs": [
        {
          "internalType": "uint256",
          "name": "",
          "type": "uint256"
        }
      ],
      "name": "questApproved",
      "outputs": [
        {
          "internalType": "bool",
          "name": "",
          "type": "bool"
        }
      ],
      "stateMutability": "view",
      "type": "function"
    }
  ],
  "bytecode": "0x6080604052348015600f57600080fd5b50336000806101000a81548173ffffffffffffffffffffffffffffffffffffffff021916908373ffffffffffffffffffffffffffffffffffffffff1602179055506103c28061005f6000396000f3fe608060405234801561001057600080fd5b506004361061004c5760003560e01c806308b169fc1461005157806360f96a8f1461006d5780637910867b1461008b578063aa77d2de146100bb575b600080fd5b61006b60048036038101906100669190610250565b6100eb565b005b6100756101a7565b60405161008291906102be565b60405180910390f35b6100a560048036038101906100a09190610250565b6101cb565b6040516100b291906102f4565b60405180910390f35b6100d560048036038101906100d09190610250565b6101f5565b6040516100e291906102f4565b60405180910390f35b60008054906101000a900473ffffffffffffffffffffffffffffffffffffffff1673ffffffffffffffffffffffffffffffffffffffff163373ffffffffffffffffffffffffffffffffffffffff1614610179576040517f08c379a00000000000000000000000000000000000000000000000000000000081526004016101709061036c565b60405180910390fd5b600180600083815260200190815260200160002060006101000a81548160ff02191690831515021790555050565b60008054906101000a900473ffffffffffffffffffffffffffffffffffffffff1681565b60006001600083815260200190815260200160002060009054906101000a900460ff169050919050565b60016020528060005260406000206000915054906101000a900460ff1681565b600080fd5b6000819050919050565b61022d8161021a565b811461023857600080fd5b50565b60008135905061024a81610224565b92915050565b60006020828403121561026657610265610215565b5b60006102748482850161023b565b91505092915050565b600073ffffffffffffffffffffffffffffffffffffffff82169050919050565b60006102a88261027d565b9050919050565b6102b88161029d565b82525050565b60006020820190506102d360008301846102af565b92915050565b60008115159050919050565b6102ee816102d9565b82525050565b600060208201905061030960008301846102e5565b92915050565b600082825260208201905092915050565b7f4f6e6c7920706172656e742063616e20617070726f7665000000000000000000600082015250565b600061035660178361030f565b915061036182610320565b602082019050919050565b6000602082019050818103600083015261038581610349565b905091905056fea264697066735822122071b47f9fca7b1c05e1a919030227ed85e83db50ddcbcfa7a0e69857df1064dee64736f6c634300081c0033",
  "linkReferences": {},
  "deployedLinkReferences": {}
}